:100000000C942A001895000018950000189500001F
:10001000189500001895000018950000189500002C
:10002000189500001895000018950000189500001C
:10003000189500001895000018950000189500000C
:1000400018950000189500001895000018950000FC
:10005000189500008FE58DBFC8E3E0E24E2E88E0E2
:100060008EBFD8E0F8E05F2EA89584B7082E877F72
:1000700084BF88E1992781BD91BDEEEFF7E0A0E64E
:10008000B0E088278D933197E9F766248FEF8ABB1C
:100090008FEF87BBD89AD99ADA9ADB9881E888BB28
:1000A000E1E0F0E00E94060283EF88BBE1E0F0E0CF
:1000B0000E94060289E488BBE1E0F0E00E940602AB
:1000C00081E688BBE1E0F0E00E94060283E388BBA2
:1000D000E1E0F0E00E94060285E288BBE1E0F0E0AA
:1000E0000E94060285E088BBE1E0F0E00E94060283
:1000F00081EF88BBE1E0F0E00E94060281E088BB6E
:10010000E1E0F0E00E94060281E288BBE1E0F0E07D
:100110000E94060280E08093600000916000043637
:1001200018F011F00C94AC00DA9883EF88BB85E0EE
:1001300090E00E941502DA9ADB9881E888BB85E09E
:1001400090E00E941502DB9AA0E6B0E08C918F5FF0
:100150008C9310F40C948D0080E0809360000091EB
:100160006000043618F011F00C94CE00DA9883EF9A
:1001700088BB85E090E00E941502DA9ADB9883EF55
:1001800088BB85E090E00E941502DB9AA0E6B0E013
:100190008C918F5F8C9310F40C94AF0080E080936F
:1001A000600000916000043618F011F00C94F0002B
:1001B000DA9883EF88BB85E090E00E941502DA9A16
:1001C000DB9889E488BB85E090E00E941502DB9A09
:1001D000A0E6B0E08C918F5F8C9310F40C94D1006A
:1001E00080E08093600000916000043618F011F008
:1001F0000C941201DA9883EF88BB85E090E00E94AE
:100200001502DA9ADB9881E688BB85E090E00E94CF
:100210001502DB9AA0E6B0E08C918F5F8C9310F40E
:100220000C94F30080E0809360000091600004363D
:1002300018F011F00C943401DA9883EF88BB85E054
:1002400090E00E941502DA9ADB9883E388BB85E090
:1002500090E00E941502DB9AA0E6B0E08C918F5FDF
:100260008C9310F40C94150180E080936000009151
:100270006000043618F011F00C945601DA9883EF00
:1002800088BB85E090E00E941502DA9ADB9885E24F
:1002900088BB85E090E00E941502DB9AA0E6B0E002
:1002A0008C918F5F8C9310F40C94370180E08093D5
:1002B000600000916000043618F011F00C94780191
:1002C000DA9883EF88BB85E090E00E941502DA9A05
:1002D000DB9885E088BB85E090E00E941502DB9A00
:1002E000A0E6B0E08C918F5F8C9310F40C945901D0
:1002F00080E08093600000916000043618F011F0F7
:100300000C949A01DA9883EF88BB85E090E00E9414
:100310001502DA9ADB9881EF88BB85E090E00E94B5
:100320001502DB9AA0E6B0E08C918F5F8C9310F4FD
:100330000C947B0180E080936000009160000436A3
:1003400018F011F00C94BC01DA9883EF88BB85E0BB
:1003500090E00E941502DA9ADB9881E088BB85E084
:1003600090E00E941502DB9AA0E6B0E08C918F5FCE
:100370008C9310F40C949D0180E0809360000091B8
:100380006000043618F011F00C94DE01DA9883EF67
:1003900088BB85E090E00E941502DA9ADB9881E242
:1003A00088BB85E090E00E941502DB9AA0E6B0E0F1
:1003B0008C918F5F8C9310F40C94BF0180E080933C
:1003C000600000916000043618F011F00C940002F7
:1003D000DA9889E488BB85E090E00E941502DA9AF9
:1003E000DB9881E888BB85E090E00E941502DB9AEB
:1003F000A0E6B0E08C918F5F8C9310F40C94E10137
:10040000DA9ADB980C944E00F894FFCF88EE93E0D4
:100410000CD03197D9F708953197F1F70895689482
:1004200062F80895E89462F80895EF93FF93EE2739
:10043000E82BE92B31F0E0EAFFE03197F1F7019783
:08044000D1F7FF91EF9108953F
:00000001FF
