:100000000C942A001895000018950000189500001F
:10001000189500001895000018950000189500002C
:10002000189500001895000018950000189500001C
:10003000189500001895000018950000189500000C
:1000400018950000189500001895000018950000FC
:10005000189500008FE58DBFC8E3E0E24E2E88E0E2
:100060008EBFD8E0F8E05F2EA89584B7082E877F72
:1000700084BF88E1992781BD91BDEEEFF7E0A0E64E
:10008000B0E088278D933197E9F766248FEF87BB1F
:1000900088EC8093610081E08093600000916000B3
:1000A000043118F011F00C94720080E088BBA1E6D6
:1000B000B0E08C9199270E947D008FEF88BBA1E66C
:1000C000B0E08C9199270E947D00A1E6B0E08C9170
:1000D0008A508C93A0E6B0E08C918F5F8C9310F4E3
:1000E0000C944E00F894FFCF3197F1F7089568947F
:1000F00062F80895E89462F80895EF93FF93EE276D
:10010000E82BE92B31F0E0EAFFE03197F1F70197B6
:08011000D1F7FF91EF91089572
:00000001FF
