:100000000C942A001895000018950000189500001F
:10001000189500001895000018950000189500002C
:10002000189500001895000018950000189500001C
:10003000189500001895000018950000189500000C
:1000400018950000189500001895000018950000FC
:10005000189500008FE58DBFC8E3E0E24E2E88E0E2
:100060008EBFD8E0F8E05F2EA89584B7082E877F72
:1000700084BF88E1992781BD91BDEEEFF7E0A0E64E
:10008000B0E088278D933197E9F766248FEF8ABB1C
:100090008FEF87BBD898D998DA98DB9881E888BB2E
:1000A000E1E0F0E00E948E0083EF88BBE1E0F0E049
:1000B0000E948E0089E488BBE1E0F0E00E948E009F
:1000C00081E688BBE1E0F0E00E948E0083E388BB1C
:1000D000E1E0F0E00E948E0085E288BBE1E0F0E024
:1000E0000E948E0085E088BBE1E0F0E00E948E0077
:1000F00081EF88BBE1E0F0E00E948E0081E088BBE8
:10010000E1E0F0E00E948E0081E288BBE1E0F0E0F7
:100110000E948E000C944E00F894FFCF88EE93E07E
:100120000CD03197D9F708953197F1F70895689475
:1001300062F80895E89462F80895EF93FF93EE272C
:10014000E82BE92B31F0E0EAFFE03197F1F7019776
:08015000D1F7FF91EF91089532
:00000001FF
