:100000000C942A001895000018950000189500001F
:10001000189500001895000018950000189500002C
:10002000189500001895000018950000189500001C
:10003000189500001895000018950000189500000C
:1000400018950000189500001895000018950000FC
:10005000189500008FE58DBFC8E3E0E24E2E88E0E2
:100060008EBFD8E0F8E05F2EA89584B7082E877F72
:1000700084BF88E1992781BD91BDEEEFF7E0A0E64E
:10008000B0E088278D933197E9F76624B89AB99A3A
:10009000BA9ABB9ABC9ABD9ABE9ABF9AC09884E697
:1000A00090E00E94C300C19884E690E00E94C300E3
:1000B000C29884E690E00E94C300C39884E690E072
:1000C0000E94C300C49884E690E00E94C300C598D3
:1000D00084E690E00E94C300C69884E690E00E9407
:1000E000C300C79884E690E00E94C300C09AC19AFA
:1000F000C29AC39AC49AC59AC69AC79A84E690E0EF
:100100000E94C300C79884E690E00E94C300C6988E
:1001100084E690E00E94C300C59884E690E00E94C7
:10012000C300C49884E690E00E94C300C39884E6AC
:1001300090E00E94C300C29884E690E00E94C30051
:10014000C19884E690E00E94C300C09884E690E0E5
:100150000E94C300C09AC19AC29AC39AC49AC59A0F
:10016000C69AC79A84E690E00E94C3000C944E00A1
:10017000F894FFCF3197F1F70895689462F80895E5
:10018000E89462F80895EF93FF93EE27E82BE92BAC
:1001900031F0E0EAFFE03197F1F70197D1F7FF91F5
:0401A000EF9108953E
:00000001FF
