:100000000C942A001895000018950000189500001F
:10001000189500001895000018950000189500002C
:10002000189500001895000018950000189500001C
:10003000189500001895000018950000189500000C
:1000400018950000189500001895000018950000FC
:10005000189500008FE58DBFC8E3E0E24E2E88E0E2
:100060008EBFD8E0F8E05F2EA89584B7082E877F72
:1000700084BF88E1992781BD91BDEEEFF7E0A0E64E
:10008000B0E088278D933197E9F766248FEF8ABB1C
:100090008FEF87BBD898D99ADA9ADB9A83EF88BB1F
:1000A00085E090E00E947B00D89AD99889E488BBCB
:1000B00085E090E00E947B00D99ADA9881E688BBBF
:1000C00085E090E00E947B00DA9ADB9883E388BBAE
:1000D00085E090E00E947B00DB9AD8980C944E005B
:1000E000F894FFCF3197F1F70895689462F8089576
:1000F000E89462F80895EF93FF93EE27E82BE92B3D
:1001000031F0E0EAFFE03197F1F70197D1F7FF9185
:04011000EF910895CE
:00000001FF
