:100000000C942A001895000018950000189500001F
:10001000189500001895000018950000189500002C
:10002000189500001895000018950000189500001C
:10003000189500001895000018950000189500000C
:1000400018950000189500001895000018950000FC
:10005000189500008FE58DBFC8E3E0E24E2E88E0E2
:100060008EBFD8E0F8E05F2EA89584B7082E877F72
:1000700084BF88E1992781BD91BDEEEFF7E0A0E64E
:10008000B0E088278D933197E9F76624B89AB99A3A
:10009000BA9ABB9ABC9ABD9ABE9ABF9AC098C198A8
:1000A000C298C398C498C598C698C798E1E0F0E094
:1000B0000E946A00C09AC19AC29AC39AC49AC59A09
:1000C000C69AC79AE1E0F0E00E946A000C944E00E4
:1000D000F894FFCF88EE93E00CD03197D9F70895CC
:1000E0003197F1F70895689462F80895E89462F8FA
:1000F0000895EF93FF93EE27E82BE92B31F0E0EA28
:10010000FFE03197F1F70197D1F7FF91EF91089553
:00000001FF
